:0623EA004301360003036D
:03004300021C7329
:101C7300C0E0C0F0C083C082C0D075D000C000C037
:0D1C830001C002C003C004C005C006C007B8
:101C9000E59620E7FB759686E59620E7FB90019F89
:101CA000E597F0E59620E7FB759682E59620E7FB41
:101CB0009001A0E597F0E59620E7FB759684E59600
:101CC00020E7FB9001A1E597F090019FE030E10350
:101CD000122CB890019FE030E203122BBB9001A0C0
:101CE000E030E003120FD69001A0E030E303122DA4
:101CF0002D9001A1E030E30312265590019FE030C2
:051D0000E003122CC7F6
:101D0500D007D006D005D004D003D002D001D00032
:0B1D1500D0D0D082D083D0F0D0E032DC
:102BBB009001267402F0E59620E7FB759601759758
:0D2BCB0001E4900136F0A37403F0A3F022A2
:0E2CB8009001B8E004F070069001B7E004F05F
:012CC60022EB
:100FD600E59620E7FB75960EE4F597E59620E7FB88
:100FE600759691E59620E7FB9001BFE597F0900195
:100FF60036E0B40513E59620E7FBE4F59690012D5F
:10100600E0F597E4900136F09001BFE0FF30E21082
:10101600E59620E7FB759611E4F597900136F022E8
:10102600EF30E41BE59620E7FB759611759708E50A
:101036009620E7FB759611759780E4900136F0903F
:101046000136E060030211459001BFE020E0030293
:1010560011457B017A01792A7D087C007F201226C2
:10106600C090012DE0FE90012CE07C002400FFECF6
:101076003EF0A3EFF090012FE0FE90012EE0240059
:10108600FFEC3EF0A3EFF0900131E0FE900130E07E
:101096002400FFEC3EF0A3EFF090012AE0547F64B9
:1010A600217038A3E024FE601C14602324FA60102B
:1010B60014601714601E240A701F122AD7021145E5
:1010C600122A48807A1200428075122C51807012C2
:1010D6000071806B1200728066806190012BE0B413
:1010E6000C0050589010F1F82828730211150211BF
:1010F6001A02114202111F02114202112402112981
:1011060002114202112E02113302113802113D1250
:101116001B02802B1220878026121EEB80211228AC
:10112600CC801C12177F801712218F8012121F7617
:10113600800D1224BD8008122B588003122BD890E4
:101146000136E0640160030212189001BFE030E14D
:1011560003021218E59620E7FB759691E59620E7BF
:10116600FB9001BFE597F0E030E40630E0030212A1
:10117600189001BF7402F0C3900135E094409001CD
:1011860034E09400403C900127E0FBA3E0FAA3E0A2
:10119600F97D407C007F201227CC900128E475F071
:1011A60040120A6D900135E024C0F0900134E0341D
:1011B600FFF0900133E02440F0900132E03400F07B
:1011C6008024900134E0FCA3E0FD900127E0FBA31E
:1011D600E0FAA3E0F97F201227CC9001BFE0440893
:1011E600F0E4900136F0900130E0FEA3E0FFA3E0CA
:1011F600B50611A3E0B5070C9001BFE04408F0E482
:10120600900136F0E59620E7FB7596119001BFE058
:10121600F597900136E0640260030212EFE596202E
:10122600E7FB759691E59620E7FB9001BFE597F001
:10123600E020E0030212EF7440F0C3900135E09421
:1012460040900134E09400403C900127E0FBA3E08D
:10125600FAA3E0F97D407C007F201226C090012889
:10126600E475F040120A6D900135E024C0F090015B
:1012760034E034FFF0900133E02440F0900132E096
:101286003400F0801C900134E0FCA3E0FD900127BF
:101296007F201226B89001BFE04408F0E4900136A2
:1012A600F0900130E0FEA3E0FFA3E0B50611A3E055
:1012B600B5070C9001BFE04408F0E4900136F090C9
:1012C6000136E0700E90012BE0B409077F017E0025
:1012D600120076900136E064046005E59620E7FB8F
:0912E6007596119001BFE0F59727
:0112EF0022DC
:062D2D00E4900139F022E0
:10265500E49001C0F0E59620E7FB75960E759703AB
:10266500E59620E7FB759694E59620E7FBAF9790F6
:102675000139E0B4030CE59620E7FB7596147597D0
:102685002022EF30E60BE59620E7FB75961475974B
:1026950080122C3C9000C6E0FD7C00A37F2312260F
:1026A500B8E4FFFE120076E59620E7FB759614E484
:0226B500F59797
:0126B7002200
:0E2CC7009001BAE004F070069001B9E004F04C
:012CD50022DC
:0826B800E0FBA3E0FAA3E0F946
:1026C00090015BEFF090015EEBF0A3EAF0A3E9F07C
:0826D00090015CECF0A3EDF0B9
:1026D8004C603C90015BE0F5964396C0E4FFFED366
:1026E80090015DE09F90015CE09E4020E59620E728
:1026F800FB90015EE0FBA3E0FAA3E0F98F828E83F2
:0F270800E597120A4B0FBF00010E80D3E4F59640
:01271700229F
:102454009000C6E0FD7C00A3E0FBA3E0FAA3E0F952
:022464007F23D4
:10246600900161EFF0900164EBF0A3EAF0A3E9F0CC
:08247600900162ECF0A3EDF00F
:10247E004C603BE59620E7FB900161E0F596E4FFAA
:10248E00FED3900163E09F900162E09E4020900198
:10249E0064E0FBA3E0FAA3E0F98F828E83120A0CAC
:0E24AE00F597E59620E7FB0FBF00010E80D3E7
:0124BC0022FD
:1027CC00900167EFF090016AEBF0A3EAF0A3E9F057
:0827DC00900168ECF0A3EDF0A0
:1027E4004C603BE59620E7FB900167E0F596E4FF3B
:1027F400FED3900169E09F900168E09E4020900123
:102804006AE0FBA3E0FAA3E0F98F828E83120A0C3C
:0E281400F597E59620E7FB0FBF00010E80D37D
:012822002293
:102BD800E59620E7FB75960EE4F597E59620E7FB6A
:0D2BE8007596117597209001367404F02247
:10237C00A2AF920CC2AFE59620E7FB75960E75974F
:10238C0003E59620E7FB759691E59620E7FBAF9762
:10239C00900139E0FEB4030DE59620E7FB7596112C
:1023AC007597108034EE703190013904F0EF30E500
:1023BC000BE59620E7FB759611759740EF30E20B15
:1023CC00E59620E7FB759611E4F597122454E596F3
:0D23DC0020E7FB759611759701A20C92AFDA
:0123E90022D1
:10210C00A2AF920DC2AFE59620E7FB75960E7597C0
:10211C0003E59620E7FB759691E59620E7FBAF97D4
:10212C00EF30E011E59620E7FB759691E59620E7F8
:10213C00FBAF9780EB900139E0FEB4030DE59620E0
:10214C00E7FB7596117597108034EE70319001395C
:10215C0004F0EF30E50BE59620E7FB7596117597CB
:10216C0040EF30E20BE59620E7FB759611E4F5970E
:10217C00122454E59620E7FB759611759701A20D74
:02218C0092AF10
:01218E00222E
:04003E0001000000BD
:101B020090012CE07010A3E0700C900130E07006A0
:101B1200A3E064026003122BD890012AE0247F60C4
:101B2200131460322402707290012EE0706CA3E0F4
:101B320060158066900126E0B4040A90012EE070E0
:101B420004A3E06002805390012774FFF0A37400A5
:101B5200F0A374408036900126E0B4040690012E72
:101B6200E06002803590012FE0B4812C900137E0D3
:101B7200900127B4030C74FFF0A37400F0A3743E29
:101B8200800A74FFF0A37400F0A37440F090013453
:101B9200E4F0A37402F080058000122BD890013685
:101BA200E064046018E59620E7FB7596117597408E
:0E1BB2009001367401F0E4900132F0A3F022AD
:10208700900126E06404705B90012AE0FF605464CD
:1020970001605090012CE0704A90012EE07044904E
:1020A7000130E0703EA3E06002803890012AE064CE
:1020B70002703090012DE0702A90012FE0FF6481BB
:1020C7007021EFB48120E59620E7FB75960E759792
:1020D70003E59620E7FB759611759740E490013963
:1020E700F08003122BD8E59620E7FB75960EE4F5F2
:1020F70097900136E06404600BE59620E7FB759640
:0521070011759748224C
:101EEB00900126E06404706190012AE0FF605A645F
:101EFB0001605690012CE0705090012EE0704A90DA
:101F0B000130E07044A3E06002803E90012AE0645F
:101F1B0002703690012DE0703090012FE0FF64814C
:101F2B006005EF64027022EFB48321E59620E7FB96
:101F3B0075960E759703E59620E7FB7596117597C9
:101F4B00109001397403F08003122BD8E59620E72B
:101F5B00FB75960EE4F597900136E06404600BE593
:0B1F6B009620E7FB7596117597482241
:1028CC0090012AE0701D90012EE07017A3E07013A8
:1028DC00A3E0700FA3E0700B90012CE07005A3E057
:1028EC0030E703122BD89001367405F090012DE0DF
:1028FC0090012660057403F080037402F090013699
:10290C00E06404600BE59620E7FB7596117597481B
:01291C002298
:10177F0090012CE024DF700302188B147003021801
:10178F00A92421B4050040030218C29017A875F0D0
:10179F0003A4C58325F0C583730217B70217CA02C6
:1017AF0017F002182B02184590012774FFF0A3744D
:1017BF001BF0A374C0F0901BC0807290012774FFC0
:1017CF00F0A3741BF0A374D2F0901BD5E493FE909A
:1017DF001BD4E4937C002400FFEC3E9001340218EC
:1017EF00A390012DE0D3940240030218C290012D63
:1017FF00E075F003A42439F582E5F03401F583E0B8
:10180F00FBA3E0FAA3E0F9900127EBF0A3EAF0A322
:10181F00E9F01209F3FF900134E480789001277406
:10182F00FFF0A3741BF0A374DBF0901BDBE493FFBA
:10183F00900134E4805E90012DE0FFB4831E90018F
:10184F002774FFF0A3741BF0A374EDF0901BEDE46D
:10185F0093FD900134E4F0A3EDF0805AEFB4031A36
:10186F0090012774FFF0A3741BF0A374F4F0901B86
:10187F00F4E493FF900134E4801A803790012774C9
:10188F00FFF0A3741BF0A374E4F0901BE4E493FF48
:10189F00900134E4F0A3EFF0801C90012774FFF067
:1018AF00A3741BF0A374FBF0900134E4F0A374282D
:1018BF00F08003122BD890012CE0FF64016013EF2E
:1018CF006402600EEF64036009EF64046004EFB418
:1018DF000523900131E0FFD3900135E09F90013453
:1018EF00E094004010900130E0700AE0FE90013467
:1018FF00EEF0A3EFF0900136E064046018E5962057
:10190F00E7FB7596117597409001367401F0E490DE
:06191F000132F0A3F022EA
:10218F0090012AE06480701C90012CE07016A3E08F
:10219F007012A3E0700EA3E0700AA3E07006A3E034
:1021AF0064016005122BD88038900126E0FFB4043B
:1021BF001690012774FFF0A37400F0A3743EF09003
:1021CF000134E4F0A304F0EFB4031690012774FF79
:1021DF00F0A37400F0A37440F0900134E4F0A30472
:1021EF00F0900136E064046018E59620E7FB7596E1
:1021FF00117597409001367401F0E4900132F0A30D
:02220F00F022BB
:101F7600900126E06402602590012AE0701F90011E
:101F86002EE07019A3E07015A3E07011A3E0700DA8
:101F960090012CE07007A3E0D394014005122BD8E2
:101FA600804490012DE0D3940040319001267404C2
:101FB600F0E4900139F0E59620E7FB75960E7597EB
:101FC60003E59620E7FB759612759704E59620E7DC
:101FD600FB75960EE4F597122D2D800A9001267456
:101FE60003F0900137F0900136E06404600BE5964B
:0A1FF60020E7FB759611759748224D
:1024BD00900126E06404702490012AE06481701C70
:1024CD0090012CE07016A3E07012A3E0700EA3E053
:1024DD00700AA3E07006A3E064016005122BD8809A
:1024ED001690012774FFF0A37400F0A37440F090D0
:1024FD000134E4F0A304F0900136E064046018E5C3
:10250D009620E7FB7596117597409001367401F092
:08251D00E4900132F0A3F0226A
:102B580090012AE06401701C900130E07016A3E037
:102B6800701290012CE0700CA3E07008A3E07004D0
:102B7800A3E06003122BD8900136E06404600BE5F3
:0B2B88009620E7FB7596117597482218
:01004200229B
:01007100226C
:01007200226B
:102C5100900136E06404600BE59620E7FB75961160
:042C610075974822F9
:102AD7009000C7E0F9A3E0FAA3E0900127C9F0A3AB
:102AE700EAF0A3E9F09000C6E0FF900134E4F0A318
:102AF700EFF0900136E064046018E59620E7FB7577
:102B070096117597409001367401F0E4900132F008
:032B1700A3F02206
:102A4800122C3C9000C7E0F9A3E0FAA3E09001271C
:102A5800C9F0A3EAF0A3E9F0900130E0FFA3E09009
:102A68000134CFF0A3EFF0900136E064046018E57C
:102A78009620E7FB7596117597409001367402F021
:082A8800E4900132F0A3F022FA
:101DCB00900122120BD148C35000122BF57B017AE4
:101DDB0001796D122B93122CD612282312228F907D
:101DEB0001BDE07021122CA8122CA8122C78122CF9
:101DFB0098122C78122C98122C78122C98122C7872
:101E0B00122CA8122CA89001C2E06005122CD680CF
:101E1B0021122CA8122CA8122C78122C88122C7898
:101E2B00122C88122C78122C88122C78122CA812B7
:101E3B002CA8122CD6900000E0600E120C93900090
:101E4B0003E060F11212F080EC900003E060E61208
:041E5B0012F080E120
:102B93007401120A39F582758300120A4B90000200
:102BA300740775F0DF120AA29000047406120A4B30
:082BB300900005741A020A4BA0
:1023F0004100D30141000000410004004100CA0037
:1024000041000200410005004200CB01004200CD26
:1024100002004200CF03004200D10400410001004D
:102420004200D410204200D630404200D8506041D3
:03243000000300A6
:080076009001A2EEF0A3EFF0EF
:10007E009000D37401F09000C7E0FBA3E0FAA3E078
:10008E00F99000D3E0F582758300120A0C24E97012
:10009E000302074E2417B40A004003020809900019
:1000AE00B3F82828730200D102016D020218020271
:1000BE00CC02038902048002056B02063502067526
:1000CE000207099000C7E0FBA3E0FAA3E0F9740170
:1000DE00120A399000C7E0FBA3E0FAA3E0F9900002
:1000EE00D3E0FFF582758300E4120A4B90016DE0B8
:1000FE00FEEFF582758300A3EE120A4B90016EE0BF
:10010E00FF9000D3E0F582758300A3A3EF120A4B94
:10011E0090016FE0FF9000D3E0F582758300A3A3FA
:10012E00A3EF120A4B90016FA3E0FF9000D3E0FE05
:10013E002404F582E433F583EF120A4B900171E04B
:10014E00FFEE2405F582E433F583EF120A4B90019E
:10015E0072E0FFEE2406F582E433F583020431905B
:10016E0000D3E0FF7E002401FDEE33FC9000C7E0DB
:10017E00FBA3E0FAA3E0F98D828C83120A0C1460C3
:10018E001D0460030208098F828E83A3A3120A0C3A
:10019E00FF1392A1EF5402C31324FF92A222E4FF95
:1001AE001227739000D3E0FD7C002402FFEC33FE97
:1001BE009000C7E0FBA3E0FAA3E0F98F828E8312D2
:1001CE000A0CFE8D828C83A3A3A3120A0C2400FFBB
:1001DE00EC3EFE1200469000C7E0FBA3E0FAA3E05F
:1001EE00F97401120A399000C7E0FBA3E0FAA3E00C
:1001FE00F99000D3E0FFF582758300E4120A4B8F6D
:10020E0082758300A3E5800204329000D3E0FF7E66
:10021E00002401FDEE33FC9000C7E0FBA3E0FAA33F
:10022E00E0F98D828C83120A0C146037046003028D
:10023E0008098F828E83A3A3120A0CF5A58F828ED6
:10024E0083A3A3A3120A0CF5A69000D3E02404F511
:10025E0082E433F583120A0C30E00443E280225329
:10026E00E27F229000C7E0FBA3E0FAA3E0F974015D
:10027E00120A399000C7E0FBA3E0FAA3E0F9900060
:10028E00D3E0FFF582758300E4120A4B7E008F8265
:10029E008E83A3E5A5120A4B8F828E83A3A3E5A6B8
:1002AE00120A4BE5E25480C41313135401FF90005D
:1002BE00D3E0F582758300A3A3A3EF02043290006E
:1002CE00D3E0FF7E002401FDEE33FC9000C7E0FB7F
:1002DE00A3E0FAA3E0F98D828C83120A0C14601E3F
:1002EE000460030208098F828E83A3A3120A0CF501
:1002FE00908F828E83A3A3A3120A0CF5A0229001E5
:10030E00A4E5E2F09000D3E02402FFE433FE900077
:10031E00C7E0FBA3E0FAA3E0F98F828E83120A0CEA
:10032E0030E00F53E27FE4FF1227737F027E00124C
:10033E0000469000C7E0FBA3E0FAA3E0F9740112B7
:10034E000A399000C7E0FBA3E0FAA3E0F99000D3CE
:10035E00E0FFF582758300E4120A4B7E008F828ED9
:10036E0083A3E590120A4B8F828E83A3A3E5A0127E
:10037E000A4B9001A4E0F5E202074B9000D3E0FF98
:10038E007E002401FDEE33FC9000C7E0FBA3E0FAF3
:10039E00A3E0F98D828C83120A0C147003020438C8
:1003AE000460030208098F828E83A3A3120A0C90A5
:1003BE000145F08F828E83A3A3A3120A0C30E005B1
:1003CE0043C110800353C1EF9000D3E02404FFE437
:1003DE0033FE9000C7E0FBA3E0FAA3E0F98F828E14
:1003EE0083120A0C20E0030208097401120A3990E4
:1003FE0000C7E0FBA3E0FAA3E0F99000D3E0F5829A
:10040E00758300E4120A4B122A909000D3E0240167
:10041E00FDE433FC9000C7E0FBA3E0FAA3E0F98D06
:10042E00828C83EF120A4B02074B9000C7E0FBA3AE
:10043E00E0FAA3E0F97401120A399000C7E0FBA3B9
:10044E00E0FAA3E0F99000D3E0FFF582758300E4B3
:10045E00120A4B900145E0FEEFF582758300A3EE84
:10046E00120A4BE5C15410C4540FFF9000D3E002A2
:10047E0005609000D3E02401FFE433FE9000C7E056
:10048E00FBA3E0FAA3E0F98F828E83120A0C1460AC
:10049E004F0460030208099000D3E0F582758300D3
:1004AE00A3A3120A0CFCE412093EC004C005C00648
:1004BE00C007E4FBFA7940784090011AE0FCA3E013
:1004CE00FDA3E0FEA3E0FF12080DD003D002D00181
:1004DE00D00012080D900122120BC5C28E02200010
:1004EE009000C7E0FBA3E0FAA3E0F97401120A3909
:1004FE009000C7E0FBA3E0FAA3E0F99000D3E0F58B
:10050E0082758300E4120A4B7B007A247974784951
:10051E0090011AE0FCA3E0FDA3E0FEA3E0FF1208A9
:10052E000DE4FBFA7940784012080D120972900022
:10053E00D3E0FE2401FDE433FC9000C7E0FBA3E012
:10054E00FAA3E0F98D828C83EF120A4BE58DF40449
:10055E00FFEEF582758300A3A3EF0207049000D38C
:10056E00E0FD7C002401FFEC33FE9000C7E0FBA30E
:10057E00E0FAA3E0F98F828E83120A0C5401146004
:10058E004C046003020625ED2401FFE43CFE9000BE
:10059E00C7E0FBA3E0FAA3E0F98F828E83120A0C68
:1005AE0054FEFFED2402FDE43CFC8D828C83120A86
:1005BE000C900183F09000D3E0F582758300A3A325
:1005CE00A3120A0C900184F01229B5804A9000D330
:1005DE00E0FD7C002401FFEC33FE9000C7E0FBA39E
:1005EE00E0FAA3E0F98F828E83120A0C54FEFFED1F
:1005FE002402FDEC33FC8D828C83120A0C9001894F
:10060E00F09000D3E0F582758300A3A3A3120A0C29
:10061E0090018AF01227189001A2E07002A3E06008
:10062E000302080902074B9000D3E02401FFE433D4
:10063E00FE9000C7E0FBA3E0FAA3E0F98F828E8361
:10064E00120A0C1460030208097401120A39900090
:10065E00C7E0FBA3E0FAA3E0F99000D3E0F58275C2
:10066E00830074FA0207049000D3E02401FFE43300
:10067E00FE9000C7E0FBA3E0FAA3E0F98F828E8321
:10068E00120A0C1460030208099000C7E0FBA3E0F5
:10069E00FAA3E0F97401120A399000C7E0FBA3E057
:1006AE00FAA3E0F99000D3E0F58275830074FA1294
:1006BE000A4B7B007A247974784990011EE0FCA3E2
:1006CE00E0FDA3E0FEA3E0FF12080D1209729000F8
:1006DE00D3E0FE2401FDE433FC9000C7E0FBA3E071
:1006EE00FAA3E0F98D828C83EF120A4BEEF5827538
:1006FE008300A3A3E5A2120A4B80429000D3E0FF31
:10070E007E002402FDEE33FC9000C7E0FBA3E0FA6E
:10071E00A3E0F98D828C83120A0C9001A4F08F82D3
:10072E008E83A3120A0CFF9001A2E07002A3E06078
:10073E00030208099001A4E0700302080902237C59
:10074E00E4900005F09000CB04F0A3E4F0A3740253
:10075E00F0A3E4F0A37403F0A3E4F0A37404F0A3F5
:10076E00E4F0900004F09000CAF09000D47410F001
:10077E00A37420F0A37430F0A37440F0A37450F06F
:10078E00A37460F09000D3E02401FFE433FE9000E8
:10079E00C7E0FBA3E0FAA3E0F98F828E83120A0C66
:1007AE00FF24FE603414603614603A14603E146008
:1007BE00428000E4900002F0900001F0EF24FF92DE
:1007CE00A8EF7009FBFDFF121925C2AA227B1AE4BD
:1007DE00FD7F02121925D2AA2290000280189000E5
:1007EE0002740280139000027403800C9000027455
:0B07FE000480059000017401F0D2A8F7
:0108090022CC
:102C3C009000C77401F0A37400F0A374DAF0900054
:052C4C00C67440F022F7
:03000300022C25A7
:102C2500C0E0C083C0829000007401F0900003F002
:072C3500D082D083D0E03211
:03001300022C6557
:102C6500C0E0C083C0829000037401F0D082D0839D
:032C7500D0E0327A
:10287900E4900000F090000BF09001BDE054FEFFE1
:102889007B017A0079069001897401F0A3F012277F
:102899001890000B7405F0E49001C1F09001BDE0BF
:1028A90054FEFF7B017A0079069001897401F0A337
:1028B900F01227189001C1E004F0E0C3943C40DC19
:0328C90002237C6B
:100C9300C208D209300802D209E4900000F03008FB
:100CA300047F0680103009047F3C8009900175E0C1
:100CB30075F006A4FF900178EFF09001BDE0FF60AE
:100CC30076E490000BF0EF54FEFF7B017A00790687
:100CD3009001897402F0A314F0122718900008E021
:100CE300900176F090000B7404F09001BDE054FE87
:100CF300FF7B017A0079069001897403F0A37401E4
:100D0300F012271890000AE0FF900008E0C39F54F8
:100D13001F900175F090000B7407F09001BDE05433
:100D2300FEFF7B017A007906900178E0900189F05B
:100D3300A37401F0122718900002E0D3940050032B
:100D4300020E8EE4900005F0900173F0900178E0BC
:100D5300FF900173E0FDC39F4003020E8E900005D8
:100D6300E014604D147003020DF0147003020E2C96
:100D730024036003020E6F9000CCE004F070069031
:100D830000CBE004F0900173E0FC2408F582E43426
:100D930000F583E4F09000CBE0FAA3E0FBEAFF74F4
:100DA300092CF582E43400F583EFF0740A2D020E6A
:100DB300669000CEE004F070069000CDE004F09061
:100DC3000173E0FD2408F582E43400F583E4F09038
:100DD30000CDE0FAA3E0FBEAFF74092DF582E434C9
:100DE30000F583EFF0900173E0240A80769000D041
:100DF300E004F070069000CFE004F0900173E0FD92
:100E03002408F582E43400F583E4F09000CFE0FA9F
:100E1300A3E0FBEAFF74092DF582E43400F583EFC8
:100E2300F0900173E0240A803A9000D2E004F0705D
:100E3300069000D1E004F0900173E0FD2408F582F0
:100E4300E43400F583E4F09000D1E0FAA3E0FBEA98
:100E5300FF74092DF582E43400F583EFF0900173FC
:100E6300E0240AF582E43400F583EBF0900005E01A
:100E730004F0900002E0FF900005E0C39F4002E40D
:100E8300F0900173E02403F0020D4F9001BDE0FFE9
:100E9300700C900175741AF09000027403F0EF70F7
:100EA3000C900002E0D394005003020FD59000C7CA
:100EB300E0FBA3E0FAA3E0F97401120A39900004FD
:100EC300E0FF04F09000C7E0FBA3E0FAA3E0F99091
:100ED3000001EF120A4B900175E0900002120A4BD9
:100EE300900176E0900003120A4BE4900173F03016
:100EF30008047F0680027F3C900173E0FEC39F508D
:100F03002E74082EF582E43400F583E0FFEE24040A
:100F1300FDE433FC9000C7E0FBA3E0FAA3E0F98D06
:100F2300828C83EF120A4B900173E004F080C012AD
:100F3300210C300903020FD5900175E07003742072
:100F4300F0E4900174F0900175E0FF75F00A84FEFF
:100F5300900174E0FDC39E5079ED0475F03CA4FE4E
:100F6300EF75F006A4C39E900177F0E4900173F04F
:100F7300900177E0FFD3943C500280027F3C9001C4
:100F830073E0C39F5040E0FFA3E075F03CA42FF54E
:100F930082E435F0F583E5822444F582E583340069
:100FA300F583E0FEEF2404FDE433FC9000C7E0FB8F
:100FB300A3E0FAA3E0F98D828C83EE120A4B900131
:100FC30073E004F080AA12210C900174E004F00293
:020FD3000F49C4
:010FD50022F9
:1012F000C20AD20BE490017DF0300A02D20B9001B9
:10130000BEE0B40202C20BE4900003F09001C2E020
:1013100060387B017A01797E7F2F122CF490017E58
:10132000E090017BF030E602D2A290000B74A8F0AE
:101330009001C2E054FEFF7B017A0079069001899A
:10134000743CF0A37401F0122718900001E0D394CC
:10135000005003021401E4900005F0900179F03090
:101360000A047F068010300B047F3C800990017BCB
:10137000E075F006A4FF900179E0C39F40030214DA
:1013800001900005E014601A14602A2402705A903B
:1013900000D5E004F070069000D4E004F09000D492
:1013A00080249000D7E004F070069000D6E004F0AE
:1013B0009000D680119000D9E004F070069000D81B
:1013C000E004F09000D8E0FCA3E0FDECFF90017990
:1013D000E0FE2408F582E43400F583EFF074092E72
:1013E000F582E43400F583EDF0900005E004F0E0D0
:1013F000C394034002E4F0900179E02402F0021368
:101400005F9001C2E070030215749000C7E0FBA377
:10141000E0FAA3E0F97402120A399000CAE0FF046E
:10142000F09000C7E0FBA3E0FAA3E0F9900001EF21
:10143000120A4B90017EE0900002120A4B900003CA
:101440007432120A4BE4900179F0300A047F06806E
:10145000027F3C900179E0FEC39F502E74082EF568
:1014600082E43400F583E0FFEE2404FDE433FC90D5
:1014700000C7E0FBA3E0FAA3E0F98D828C83EF12B2
:101480000A4B900179E004F080C012210C300B036C
:1014900002152D90017BE070037420F0E490017A36
:1014A000F090017BE0FF75F00A84FE90017AE0FD88
:1014B000C39E5079ED0475F03CA4FEEF75F006A4D0
:1014C000C39E90017CF0E4900179F090017CE0FFF4
:1014D000D3943C500280027F3C900179E0C39F503E
:1014E00040E0FFA3E075F03CA42FF582E435F0F571
:1014F00083E5822444F582E5833400F583E0FEEF42
:101500002404FDE433FC9000C7E0FBA3E0FAA3E071
:10151000F98D828C83EE120A4B900179E004F08001
:10152000AA12210C90017AE004F00214A17B017A46
:1015300001797E7F2F122CF490017EE030E635E4B5
:10154000FBFDFF12192590014E7401F0A37400F009
:10155000A374D6F0A37401F0A37400F0A374D8F0C0
:101560007B017A0079D41200167B1AE4FD7F021207
:041570001925D2A2C5
:011574002254
:0B2525009001A5EBF0A3EAF0A3E9F0A1
:102530009000D3E0240AF582E43400F583EDF0EF57
:1025400054FEFF7B017A0079069001897401F0A3A3
:10255000F01227189000D3E0FF2406F582E434003F
:10256000F583E0FE74072FF582E43400F583E0FF85
:10257000EE60037FFF229001A5E0FBA3E0FAA3E059
:0A258000F94A6004EF120A397F01E6
:01258A00222E
:1029FF00AE059000D3E0FD240AF582E43400F583A0
:102A0F00EEF0740B2DF582E43400F583EBF0EF5408
:102A1F00FEFF7B017A0079069001837401F0A3F029
:102A2F001229B59000D3E02406F582E43400F58333
:082A3F00E060037FFF227F012C
:012A4700226C
:102C7800C2A2C2A1E4FF1227737FC87E00020046E9
:102C8800C2A2D2A1E4FF1227737FC87E00020046C9
:102C9800D2A2C2A1E4FF1227737FC87E00020046B9
:102CA800D2A2D2A1E4FF1227737FC87E0002004699
:0F2CD600122CA8122C88122C78122C98022CA8E1
:092D2400122CA8122C78022CA834
:101BC00012011001000000406A0B651300000102C1
:101BD000000109022900010100802009040000021F
:101BE00003000000092101010001222800070583EC
:101BF00003400001070503034000010600FF09013F
:101C0000A1018501953F7508090191027508090137
:101C100081028502953F7508090191027508090145
:101C20008102C00403090428036D00610078006983
:101C3000006D0069006E007400650067007200614D
:101C4000007400650064002E0063006F006D0024C6
:101C5000034D0041005800330030003100300031A6
:101C60000020002B0020004C0049005300320044AB
:031C700000480029
:0C243300490139FF1C23FF1C27FF1C4F30
:102BF50053D9BF12221112000612296A122000129F
:082C05002B1A122D1A022D33C7
:102211007F6475B283E4F5B943B980AE071FEE70F0
:10222100FA43B9C0E5B930E5FBE4F5A943A902E5F4
:10223100A9540324FE604124027048E5B2540314FA
:10224100601514601D1460252403703790011E125F
:102251000BD149B71B002290011E120BD14A371B2B
:10226100002290011E120BD14AB71B002290011EC1
:10227100120BD14B371B002290011E120BD14BB711
:0D2281001B002290011E120BD10000000076
:01228E00222D
:0D00060075D40375A60675E10475E240226D
:0A2D1A0075C1CD43E60143F6012226
:10296A00E59620E7FB759601759708E59620E7FB43
:10297A00759607759707E59620E7FB75960975978B
:10298A0007E59620E7FB75960B75970775D7E0E57F
:10299A009620E7FB75960F75978043E602D2AFE55E
:0B29AA009620E7FB759601759701224F
:05277300900191EFF060
:102778005388CF5389F0438902538EF8E060047F71
:102788000480027F02EF428E7B017A017992E4FF96
:10279800121D20900192E0FCA3E0FDA3E0FEA3E05F
:1027A800FF120972900191E0600A7B407A42790F2A
:1027B80078008007E47BE87A03F9F8120B0B120B18
:0327C8009D8F8C56
:0127CB0022EB
:10004600C3EF9405EE9400401F858C8AC28DD28C36
:10005600EF24FBFDEE34FF4D600C308DFDC28DEFBD
:090066001F70ED1E80EAC28C221D
:0B1D2000900196EBF0A3EAF0A3E9F0BD
:101D2B00EF14600F0470169001997404F0A3740201
:101D3B00F0800A9001997408F0A37403F090019954
:101D4B00E0558EFFA3E0FEEFA806088002C313D870
:101D5B00FC14603D047056E58E540314601014603F
:101D6B001624027048E4FBFA794078418010E4FBBA
:101D7B00FA798078408007E4FBFA79407842900149
:101D8B001EE0FCA3E0FDA3E0FEA3E0FF12080D8024
:101D9B000E90011EE0FCA3E0FDA3E0FEA3E0FF908C
:101DAB000196E0FBA3E0FAA3E0F9020BAB900196DE
:0F1DBB00E0FBA3E0FAA3E0F9120C020000000025
:011DCA0022F6
:10200000438E0853890F4389207B017A01791A7F17
:1020100001121D20900122E0F8A3E0F9A3E0FAA349
:10202000E0FB90011AE0FCA3E0FDA3E0FEA3E0FFCB
:1020300012080DE4FBFA7940784012080DE4FBFA2F
:10204000797F78431208AA60354033900122E0F886
:10205000A3E0F9A3E0FAA3E0FB90011AE0FCA3E0FF
:10206000FDA3E0FEA3E0FF12080DE4FBFA7940783F
:102070004012080D1209231209728F8D8003E4F5B6
:072080008D858D8BD28E22AD
:102B1A00E4F591538EBF7B017A01799B12258BE4F0
:102B2A00FBFA7920784290019BE0FCA3E0FDA3E048
:102B3A00FEA3E0FF12080D1209231209728E938F69
:0D2B4A009285939585929443E68043910413
:012B5700225B
:10258B009001A8EBF0A3EAF0A3E9F0E58E54402408
:10259B00C060242440703CE59154017036E4FBFA92
:1025AB007940784190011EE0FCA3E0FDA3E0FEA37F
:1025BB00E0FF12080D800E90011EE0FCA3E0FDA3CE
:1025CB00E0FEA3E0FF9001A8E0FBA3E0FAA3E0F993
:1025DB00020BAB9001A8E0FBA3E0FAA3E0F9120C0D
:0625EB00020000000022C6
:03007300022D0E4D
:0C2D0E0053C17F43C18053917FC201324A
:062D3300438805D2A8222E
:08243F00C10141014501C1008A
:03003B0002157536
:10157500C0E0C083C082C0D075D000C000C001C02B
:0B15850002C003C004C005C006C00780
:10159000C20EE5C054F0248070030216AB24C06074
:1015A0002224E06003021736900144E0F5C253C2E2
:1015B000FEA204E43342C2C2C5900142E4F0A3F0AB
:1015C00002173820C10302169E30000C200302D2FD
:1015D000C4D2C5C20002173830070ED204C2072099
:1015E0000302D2C4D2C5021738300650900147E03A
:1015F000FBA3E0FAA3E02404F9E43AFA9000D3E074
:101600007E0029F9EE3AFA900143E0FF04F0EF334F
:1016100095E0FEE92FF9EA3EFA1209F3F5C29001CE
:1016200043E0FF90014AE06F6003021738C20620D2
:101630000503021738D200D204021738300403021F
:101640001738900146E0FF900142E0FD3395E0FC41
:10165000C3ED9F7480F86C98503E900147E0FBA367
:10166000E0FAA3E02404F9E43AFA9000D3E07E0023
:1016700029F9EE3AFA90014AE029F9EE3AFA900196
:1016800042E0FF04F0EF3395E0FEE92FF9EA3EFA7D
:101690001209F3F5C2021738D2C4C201807E3002AB
:1016A00005D2C5021738D20E021738900146E0FF66
:1016B000900142E0FD3395E0FCC3ED9F7480F86C2F
:1016C000985075900147E0FBA3E0FAA3E02401F9EC
:1016D000E43AFA9000D3E07E0029F9EE3AFA90015C
:1016E00042E0FF04F0EF3395E0FEE92FF9EA3EFA1D
:1016F000E5C2120A39900146E0FFFD900142E0FE8A
:10170000FB3395E0FAC3EB9D74806A985004D2C114
:101710008026EFB50622C201C2C1D2C4900147E0C3
:10172000FBA3E0FAA3E0F99000D3E0F58275830013
:10173000E4120A4B8002D20E300E2953C17F43C1FE
:1017400080C2C5C2C4C2C1C201C20E900147E0FB43
:10175000A3E0FAA3E0F99000D3E0F582758300746A
:0617600001120A4BC2C099
:10176600D007D006D005D004D003D002D001D000D7
:09177600D0D0D082D083D0E03243
:1029B5002001FDD201900144EFF0C204900184E0B2
:1029C5007004C2068002D206C205900145E0A2E26B
:1029D50092027401120A39900147EBF0A3EAF0A3C1
:1029E500E9F0900184E090014AF0900183E09001C4
:0A29F50046F0C207D2C52001FD2202
:102718002001FDD201900144EFF090018AE070069B
:10272800D204C2068004C204D206900145E0FF30FC
:10273800E106D207C2068002C207D205EF13920350
:10274800EFA2E292027401120A39900147EBF0A35A
:10275800EAF0A3E9F090018AE090014AF09001893B
:0B276800E0900146F0D2C52001FD22E8
:102A9000E4FFFE208432C3EF940AEE94005029C272
:102AA00085E4FDFC0DBD00010CEDF44C70F6D28503
:102AB0003085FDE4FCFD0DBD00010CED640A4C7099
:102AC000F50FBF00010E80CBEF640A4E7005FE7F4C
:062AD000018003E4FEFF9B
:012AD60022DD
:0300380030320063
:042447004101C2008D
:0D2CF400AE079001C2E0FFAD0612252522BB
:0F2CE500AE05AD079001C2E0FFAB061229FF223A
:0825F100E0FBA3E0FAA3E0F90E
:1025F900900154EFF0A3EDF0A3EBF0A3EAF0A3E907
:01260900F0E0
:10260A00E4A3F0A3F0FFFE9001C2E0700122900162
:10261A0055E0FF7B017A01795A122CF4900154E0BB
:10262A00FF7B017A017959122CF490015AE0FE904D
:10263A000159E0FDEDFF900156E0FBA3E0FAA3E0AB
:0A264A00F94A6006EE8FF0120A83D1
:012654002263
:100016009001C2E0601B7D297F281225F990014ED0
:100026007D2B7F2A1225F19001517D2D7F2C1225E3
:02003600F122B5
:081A18009001ABEEF0A3EFF02A
:101A2000E4A3F09001C2E07002FF227B017A017909
:101A3000AD7F20122CF49001ABE0FEA3E08EF012FB
:101A40000C1C1A7200001A7D00011A8A000A1A97EB
:101A500000191AA400321AB100641ABE00C81ACBC9
:101A600001901AE505401AD806541AE51500000041
:101A70001AF29001ADE0540FF0E0F080789001ADE3
:101A8000E0540FF0E04410F0806B9001ADE0540F93
:101A9000F0E04420F0805E9001ADE0540FF0E044AF
:101AA00030F080519001ADE0540FF0E04440F08000
:101AB000449001ADE0540FF0E04450F080379001C5
:101AC000ADE0540FF0E04460F0802A9001ADE054A6
:101AD0000FF0E04470F0801D9001ADE0540FF0E095
:101AE0004480F080109001ADE0540FF0E04490F09D
:101AF00080037F00229001ADE0FD7F20122CE57F66
:011B000001E3
:011B010022C1
:052306009001AEEFF0B4
:10230B00E4A3F0A3F09001C2E07002FF227B017AFC
:10231B000179AF7F20122CF47B017A0179B07F23F6
:10232B00122CF49001AEE024F8601E24FE601224FF
:10233B00FE70249001AFE054F7F0A3E04408F08066
:10234B00199001AFE054F780069001AFE04408F01C
:10235B00A3E054F7F080037F00229001AFE0FD7FF4
:10236B0020122CE59001B0E0FD7F23122CE57F01BC
:01237B00223F
:05291D009001BBEFF08A
:10292200E4A3F09001C2E07002FF227B017A0179F8
:10293200BC7F23122CF49001BBE014600E047018CB
:102942009001BCE0547FF0E0F080109001BCE054B4
:102952007FF0E04480F080037F00229001BCE0FD24
:072962007F23122CE57F0129
:01296900224B
:0B19250090018BEFF0A3EDF0A3EBF0BE
:10193000E4A3F0A3F0A3F09001C2E07002FF227BC9
:10194000017A01798E7F22122CF47B017A01798F42
:101950007F24122CF47B017A0179907F2E122CF4D3
:1019600090018BE014601C14602514604624037001
:1019700056900190E0543FF0E0F090018FE054BFAA
:10198000F08047900190E0543FF0E04440802E907A
:101990000190E0543FF0E04480F090018FE044403B
:1019A000F090018EE04404F0E04402F0A3E044082B
:1019B000F08017900190E0543FF0E044C0F09001B7
:1019C0008FE04440F080037F0022900190E054DFDC
:1019D000F0E0FF90018CE05401C43354E0FEEF4E80
:1019E000900190F0E054E0F0E0FF90018DE0541F92
:1019F000FEEF4E900190F090018EE0FD7F22122CC0
:101A0000E590018FE0FD7F24122CE5900190E0FD30
:071A10007F2E122CE57F017F
:011A170022AC
:10228F00E49001B1F09001B1E0FF3395E0FE7438B6
:10229F002FF58274003EF583E49360559001C2F0F0
:1022AF007F0F9001B27433F07B017A0179B3122C56
:1022BF00F4C3EF648094805002802E9001B2E0FF4F
:1022CF00A3E06F7001E46002801F7D027F25122C56
:1022DF00E57F647E00121A187F0C1223067F01120D
:1022EF00291DE4FBFDFF0219259001B1E004F080E8
:0622FF0094E49001C2F01E
:0123050022B5
:02006F00AE00E1
:08244B004101BD004101BE008A
:10282300E49001B4F09001B4E0FF3395E0FE746FDF
:102833002FF58274003EF583E49360349001BDF07C
:102843007FFF9001B57415F07B017A0179B6122DE3
:1028530001C3EF648094805002800D9001B5E0FFC6
:10286300A3E06F7001E4600D9001B4E004F080B563
:05287300E49001BDF03E
:01287800223D
:0D2D0100AE079001BDE0FFAD0612252522B2
:102C0D00AE05AD07EDB409059001BEEEF09001BD26
:082C1D00E0FFAB061229FF22C3
:10080A000209E8EC5D046005E8590470030209DE98
:10081A001209A9580460F6EC4860F2EC7004FDFE77
:10082A00FF22C860DB2481C85009C39860025006C1
:10083A000209E59850CAF582E9294B4A7005AB824C
:10084A000209D475F0007C1A7880C3EF9BEE9AED0A
:10085A0099400DC3EF9BFFEE9AFEED99FDE842F039
:10086A00DC23ACF0D0E0FFD0E0FED0E0FDAB82208C
:10087A00E7101BEB60BAEC2CFCEF33FFEE33FEED16
:10088A0033FD0209C0E803F830E705C0F075F0004F
:10089A00EF2FFFEE33FEED33FD40B830E7C280AAFA
:1008AA0074F8CC6480CCC86480C8F58204604FC3F5
:1008BA00EB9FF5F0EA9E42F0E99D42F0E89C45F094
:1008CA00603C501DE5825FFFE582D313CB5BCBF41E
:1008DA002B5582FB50280ABA002409B90020088047
:1008EA001DE5825BFBE582D313CF5FCFF4C3132FE1
:1008FA005582FF50090EBE00050DBD00010CC3EB69
:10090A009FF5F0EA9E42F0E99D42F0E89C45F060CE
:09091A0007CC4820E701B3EC22F0
:10092300ED33EC33600A047003BD8004ECB2E7FCE2
:0109330022A1
:1009340075F020800E75F010800575F0087D007E3E
:10094400007F003392D530D503120B9DEC33401059
:10095400EF33FFEE33FEED33FDEC33FCD5F0ED2247
:0E096400E5F0247EA2D513CC92E7CDCEFF2283
:10097200EDD2E7CD33EC3392D524814006E4FFFE7D
:10098200FDFC22FCE4CFCECDCC24E0501174FF80DC
:10099200EDC3CC13CCCD13CDCE13CECF13CF047079
:0709A200F030D5DE020B9DD1
:1009A900E9D2E7C933E833F892D5EDD2E7CD33EC94
:0709B90033FC5002B2D5220D
:1009C000EC30E7100FBF000C0EBE00080DBD000498
:1009D0000BEB6014A2D5EB13FCED92E7FD2274FF44
:1009E000FCFDFEFF22E480F8A2D574FF13FC7D809D
:0309F000E480EFB1
:03000000021E5F7E
:0C1E5F00787FE4F6D8FD758121021EA6F4
:1009F300BB010689828A83E0225002E722BBFE0202
:090A0300E32289828A83E4932234
:100A0C00BB010CE58229F582E5833AF583E022509F
:100A1C0006E92582F8E622BBFE06E92582F8E222E9
:0D0A2C00E58229F582E5833AF583E4932203
:100A3900BB010689828A83F0225002F722BBFE019C
:020A4900F32296
:100A4B00F8BB010DE58229F582E5833AF583E8F0E1
:100A5B00225006E92582C8F622BBFE05E92582C88D
:020A6B00F22275
:100A6D00C5F0F8A3E028F0C5F0F8E5821582700214
:060A7D001583E038F022B1
:100A8300BB010A89828A83F0E5F0A3F0225006F7BE
:0F0A930009A7F01922BBFE06F3E5F009F31922BB
:100AA200F8BB0111E58229F582E5833AF583E8F086
:100AB200E5F0A3F0225009E92582C8F608A6F02243
:0D0AC200BBFE09E92582C8F2E5F008F2222A
:100ACF0075F008758200EF2FFFEE33FECD33CDCCDE
:100ADF0033CCC58233C5829BED9AEC99E582984061
:100AEF000CF582EE9BFEED9AFDEC99FC0FD5F0D63E
:100AFF00E4CEFBE4CDFAE4CCF9A88222B800C1B968
:100B0F000059BA002DEC8BF084CFCECDFCE5F0CBA5
:100B1F00F97818EF2FFFEE33FEED33FDEC33FCEBDE
:100B2F0033FB10D703994004EB99FB0FD8E5E4F999
:100B3F00FA227818EF2FFFEE33FEED33FDEC33FC86
:100B4F00C933C910D7059BE99A4007EC9BFCE99A7A
:100B5F00F90FD8E0E4C9FAE4CCFB2275F010EF2FBF
:100B6F00FFEE33FEED33FDCC33CCC833C810D707BF
:100B7F009BEC9AE899400AED9BFDEC9AFCE899F8FA
:0E0B8F000FD5F0DAE4CDFBE4CCFAE4C8F9228D
:0E0B9D00C3E49FFFE49EFEE49DFDE49CFC2269
:100BAB00BB010789828A83020BC55005E9F8020C49
:0A0BBB0049BBFE05E9F8020C5522C3
:0C0BC500ECF0A3EDF0A3EEF0A3EFF022A3
:100BD100A8828583F0D083D082120BE8120BE81231
:100BE1000BE8120BE8E473E493A3C583C5F0C58356
:100BF100C8C582C8F0A3C583C5F0C583C8C582C86E
:010C010022D0
:100C0200BB010789828A83020BD15005E9F8020CE5
:0A0C120061BBFE05E9F8020C7A222E
:100C1C00D083D082F8E4937012740193700DA3A367
:100C2C0093F8740193F5828883E473740293B5F09E
:0D0C3C00067403936860E9A3A3A3A380D806
:101E6B00021DCBE493A3F8E493A34003F68001F2A5
:101E7B0008DFF48029E493A3F85407240CC8C33378
:101E8B00C4540F4420C8834004F456800146F6DF47
:101E9B00E4800B01020408102040809023EAE47ECA
:101EAB00019360BCA3FF543F30E509541FFEE4933C
:101EBB00A360010ECF54C025E060A840B8E493A303
:101ECB00FAE493A3F8E493A3C8C582C8CAC583CA2E
:101EDB00F0A3C8C582C8CAC583CADFE9DEE780BEE6
:012453000088
:0C0C4900ECF608EDF608EEF608EFF622D7
:0C0C5500ECF208EDF208EEF208EFF222DB
:100C6100D083D082E493F608740193F6087402935A
:090C7100F608740393F674047391
:100C7A00D083D082E493F208740193F20874029349
:090C8A00F208740393F274047380
:00000001FF
